{
  "contractName": "DAO",
  "abi": [
    {
      "inputs": [
        {
          "internalType": "uint256",
          "name": "contributionTime",
          "type": "uint256"
        },
        {
          "internalType": "uint256",
          "name": "_voteTime",
          "type": "uint256"
        },
        {
          "internalType": "uint256",
          "name": "_quorum",
          "type": "uint256"
        }
      ],
      "stateMutability": "nonpayable",
      "type": "constructor"
    },
    {
      "inputs": [],
      "name": "admin",
      "outputs": [
        {
          "internalType": "address",
          "name": "",
          "type": "address"
        }
      ],
      "stateMutability": "view",
      "type": "function",
      "constant": true
    },
    {
      "inputs": [],
      "name": "availableFunds",
      "outputs": [
        {
          "internalType": "uint256",
          "name": "",
          "type": "uint256"
        }
      ],
      "stateMutability": "view",
      "type": "function",
      "constant": true
    },
    {
      "inputs": [],
      "name": "contributionEnd",
      "outputs": [
        {
          "internalType": "uint256",
          "name": "",
          "type": "uint256"
        }
      ],
      "stateMutability": "view",
      "type": "function",
      "constant": true
    },
    {
      "inputs": [
        {
          "internalType": "address",
          "name": "",
          "type": "address"
        }
      ],
      "name": "investors",
      "outputs": [
        {
          "internalType": "bool",
          "name": "",
          "type": "bool"
        }
      ],
      "stateMutability": "view",
      "type": "function",
      "constant": true
    },
    {
      "inputs": [],
      "name": "nextProposalId",
      "outputs": [
        {
          "internalType": "uint256",
          "name": "",
          "type": "uint256"
        }
      ],
      "stateMutability": "view",
      "type": "function",
      "constant": true
    },
    {
      "inputs": [
        {
          "internalType": "uint256",
          "name": "",
          "type": "uint256"
        }
      ],
      "name": "proposals",
      "outputs": [
        {
          "internalType": "uint256",
          "name": "id",
          "type": "uint256"
        },
        {
          "internalType": "string",
          "name": "name",
          "type": "string"
        },
        {
          "internalType": "uint256",
          "name": "amount",
          "type": "uint256"
        },
        {
          "internalType": "address payable",
          "name": "recipient",
          "type": "address"
        },
        {
          "internalType": "uint256",
          "name": "votes",
          "type": "uint256"
        },
        {
          "internalType": "uint256",
          "name": "end",
          "type": "uint256"
        },
        {
          "internalType": "bool",
          "name": "executed",
          "type": "bool"
        }
      ],
      "stateMutability": "view",
      "type": "function",
      "constant": true
    },
    {
      "inputs": [],
      "name": "quorum",
      "outputs": [
        {
          "internalType": "uint256",
          "name": "",
          "type": "uint256"
        }
      ],
      "stateMutability": "view",
      "type": "function",
      "constant": true
    },
    {
      "inputs": [
        {
          "internalType": "address",
          "name": "",
          "type": "address"
        }
      ],
      "name": "shares",
      "outputs": [
        {
          "internalType": "uint256",
          "name": "",
          "type": "uint256"
        }
      ],
      "stateMutability": "view",
      "type": "function",
      "constant": true
    },
    {
      "inputs": [],
      "name": "totalShares",
      "outputs": [
        {
          "internalType": "uint256",
          "name": "",
          "type": "uint256"
        }
      ],
      "stateMutability": "view",
      "type": "function",
      "constant": true
    },
    {
      "inputs": [],
      "name": "voteTime",
      "outputs": [
        {
          "internalType": "uint256",
          "name": "",
          "type": "uint256"
        }
      ],
      "stateMutability": "view",
      "type": "function",
      "constant": true
    },
    {
      "inputs": [
        {
          "internalType": "address",
          "name": "",
          "type": "address"
        },
        {
          "internalType": "uint256",
          "name": "",
          "type": "uint256"
        }
      ],
      "name": "votes",
      "outputs": [
        {
          "internalType": "bool",
          "name": "",
          "type": "bool"
        }
      ],
      "stateMutability": "view",
      "type": "function",
      "constant": true
    },
    {
      "stateMutability": "payable",
      "type": "receive",
      "payable": true
    },
    {
      "inputs": [],
      "name": "contribute",
      "outputs": [],
      "stateMutability": "payable",
      "type": "function",
      "payable": true
    },
    {
      "inputs": [
        {
          "internalType": "uint256",
          "name": "amount",
          "type": "uint256"
        }
      ],
      "name": "redeemShares",
      "outputs": [],
      "stateMutability": "nonpayable",
      "type": "function"
    },
    {
      "inputs": [
        {
          "internalType": "uint256",
          "name": "amount",
          "type": "uint256"
        },
        {
          "internalType": "address",
          "name": "to",
          "type": "address"
        }
      ],
      "name": "transferShare",
      "outputs": [],
      "stateMutability": "nonpayable",
      "type": "function"
    },
    {
      "inputs": [
        {
          "internalType": "string",
          "name": "name",
          "type": "string"
        },
        {
          "internalType": "uint256",
          "name": "amount",
          "type": "uint256"
        },
        {
          "internalType": "address payable",
          "name": "recipient",
          "type": "address"
        }
      ],
      "name": "createProposal",
      "outputs": [],
      "stateMutability": "nonpayable",
      "type": "function"
    },
    {
      "inputs": [
        {
          "internalType": "uint256",
          "name": "proposalId",
          "type": "uint256"
        }
      ],
      "name": "vote",
      "outputs": [],
      "stateMutability": "nonpayable",
      "type": "function"
    },
    {
      "inputs": [
        {
          "internalType": "uint256",
          "name": "proposalId",
          "type": "uint256"
        }
      ],
      "name": "executeProposal",
      "outputs": [],
      "stateMutability": "nonpayable",
      "type": "function"
    },
    {
      "inputs": [
        {
          "internalType": "uint256",
          "name": "amount",
          "type": "uint256"
        },
        {
          "internalType": "address payable",
          "name": "to",
          "type": "address"
        }
      ],
      "name": "withdrawEther",
      "outputs": [],
      "stateMutability": "nonpayable",
      "type": "function"
    }
  ],
  "bytecode": "0x60806040523480156200001157600080fd5b50604051620022c0380380620022c0833981810160405281019062000037919062000136565b600081118015620000485750606481105b6200008a576040517f08c379a00000000000000000000000000000000000000000000000000000000081526004016200008190620001f3565b60405180910390fd5b824262000098919062000244565b600681905550816008819055508060098190555033600a60006101000a81548173ffffffffffffffffffffffffffffffffffffffff021916908373ffffffffffffffffffffffffffffffffffffffff160217905550505050620002a1565b600080fd5b6000819050919050565b6200011081620000fb565b81146200011c57600080fd5b50565b600081519050620001308162000105565b92915050565b600080600060608486031215620001525762000151620000f6565b5b600062000162868287016200011f565b935050602062000175868287016200011f565b925050604062000188868287016200011f565b9150509250925092565b600082825260208201905092915050565b7f71756f72756d206d757374206265206265747765656e203020616e6420313030600082015250565b6000620001db60208362000192565b9150620001e882620001a3565b602082019050919050565b600060208201905081810360008301526200020e81620001cc565b9050919050565b7f4e487b7100000000000000000000000000000000000000000000000000000000600052601160045260246000fd5b60006200025182620000fb565b91506200025e83620000fb565b9250827fffffffffffffffffffffffffffffffffffffffffffffffffffffffffffffffff0382111562000296576200029562000215565b5b828201905092915050565b61200f80620002b16000396000f3fe60806040526004361061010d5760003560e01c80636f7bc9be11610095578063ce56c45411610064578063ce56c45414610393578063ce7c2ac2146103bc578063d151b516146103f9578063d7bb99ba14610424578063f851a4401461042e5761012d565b80636f7bc9be146102c55780639f2524ee14610302578063adba98041461033f578063bcf93dd6146103685761012d565b80631703a018116100dc5780631703a018146101f05780632ab09d141461021b5780633a98ef391461024657806346fcff4c146102715780636ac1e01f1461029c5761012d565b80630121b93f14610132578063013cf08b1461015b578063039383e61461019e5780630d61b519146101c75761012d565b3661012d5734600560008282546101249190611347565b92505081905550005b600080fd5b34801561013e57600080fd5b50610159600480360381019061015491906113dd565b610459565b005b34801561016757600080fd5b50610182600480360381019061017d91906113dd565b6106b3565b604051610195979695949392919061150e565b60405180910390f35b3480156101aa57600080fd5b506101c560048036038101906101c091906115c2565b6107aa565b005b3480156101d357600080fd5b506101ee60048036038101906101e991906113dd565b610933565b005b3480156101fc57600080fd5b50610205610b11565b6040516102129190611602565b60405180910390f35b34801561022757600080fd5b50610230610b17565b60405161023d9190611602565b60405180910390f35b34801561025257600080fd5b5061025b610b1d565b6040516102689190611602565b60405180910390f35b34801561027d57600080fd5b50610286610b23565b6040516102939190611602565b60405180910390f35b3480156102a857600080fd5b506102c360048036038101906102be919061177e565b610b29565b005b3480156102d157600080fd5b506102ec60048036038101906102e791906117ed565b610d56565b6040516102f9919061181a565b60405180910390f35b34801561030e57600080fd5b5061032960048036038101906103249190611835565b610d76565b604051610336919061181a565b60405180910390f35b34801561034b57600080fd5b50610366600480360381019061036191906113dd565b610da5565b005b34801561037457600080fd5b5061037d610f25565b60405161038a9190611602565b60405180910390f35b34801561039f57600080fd5b506103ba60048036038101906103b59190611875565b610f2b565b005b3480156103c857600080fd5b506103e360048036038101906103de91906117ed565b610fc9565b6040516103f09190611602565b60405180910390f35b34801561040557600080fd5b5061040e610fe1565b60405161041b9190611602565b60405180910390f35b61042c610fe7565b005b34801561043a57600080fd5b5061044361110c565b60405161045091906118c4565b60405180910390f35b600115156000803373ffffffffffffffffffffffffffffffffffffffff1673ffffffffffffffffffffffffffffffffffffffff16815260200190815260200160002060009054906101000a900460ff161515146104eb576040517f08c379a00000000000000000000000000000000000000000000000000000000081526004016104e29061192b565b60405180910390fd5b600060026000838152602001908152602001600020905060001515600360003373ffffffffffffffffffffffffffffffffffffffff1673ffffffffffffffffffffffffffffffffffffffff168152602001908152602001600020600084815260200190815260200160002060009054906101000a900460ff161515146105a6576040517f08c379a000000000000000000000000000000000000000000000000000000000815260040161059d906119bd565b60405180910390fd5b806005015442106105ec576040517f08c379a00000000000000000000000000000000000000000000000000000000081526004016105e390611a29565b60405180910390fd5b6001600360003373ffffffffffffffffffffffffffffffffffffffff1673ffffffffffffffffffffffffffffffffffffffff168152602001908152602001600020600084815260200190815260200160002060006101000a81548160ff021916908315150217905550600160003373ffffffffffffffffffffffffffffffffffffffff1673ffffffffffffffffffffffffffffffffffffffff168152602001908152602001600020548160040160008282546106a89190611347565b925050819055505050565b60026020528060005260406000206000915090508060000154908060010180546106dc90611a78565b80601f016020809104026020016040519081016040528092919081815260200182805461070890611a78565b80156107555780601f1061072a57610100808354040283529160200191610755565b820191906000526020600020905b81548152906001019060200180831161073857829003601f168201915b5050505050908060020154908060030160009054906101000a900473ffffffffffffffffffffffffffffffffffffffff16908060040154908060050154908060060160009054906101000a900460ff16905087565b81600160003373ffffffffffffffffffffffffffffffffffffffff1673ffffffffffffffffffffffffffffffffffffffff16815260200190815260200160002054101561082c576040517f08c379a000000000000000000000000000000000000000000000000000000000815260040161082390611af6565b60405180910390fd5b81600160003373ffffffffffffffffffffffffffffffffffffffff1673ffffffffffffffffffffffffffffffffffffffff168152602001908152602001600020600082825461087b9190611b16565b9250508190555081600160008373ffffffffffffffffffffffffffffffffffffffff1673ffffffffffffffffffffffffffffffffffffffff16815260200190815260200160002060008282546108d19190611347565b9250508190555060016000808373ffffffffffffffffffffffffffffffffffffffff1673ffffffffffffffffffffffffffffffffffffffff16815260200190815260200160002060006101000a81548160ff0219169083151502179055505050565b600a60009054906101000a900473ffffffffffffffffffffffffffffffffffffffff1673ffffffffffffffffffffffffffffffffffffffff163373ffffffffffffffffffffffffffffffffffffffff16146109c3576040517f08c379a00000000000000000000000000000000000000000000000000000000081526004016109ba90611b96565b60405180910390fd5b60006002600083815260200190815260200160002090508060050154421015610a21576040517f08c379a0000000000000000000000000000000000000000000000000000000008152600401610a1890611c28565b60405180910390fd5b600015158160060160009054906101000a900460ff16151514610a79576040517f08c379a0000000000000000000000000000000000000000000000000000000008152600401610a7090611cba565b60405180910390fd5b60095460646004548360040154610a909190611d09565b610a9a9190611d3a565b1015610adb576040517f08c379a0000000000000000000000000000000000000000000000000000000008152600401610ad290611e06565b60405180910390fd5b610b0d81600201548260030160009054906101000a900473ffffffffffffffffffffffffffffffffffffffff16611132565b5050565b60095481565b60075481565b60045481565b60055481565b600115156000803373ffffffffffffffffffffffffffffffffffffffff1673ffffffffffffffffffffffffffffffffffffffff16815260200190815260200160002060009054906101000a900460ff16151514610bbb576040517f08c379a0000000000000000000000000000000000000000000000000000000008152600401610bb29061192b565b60405180910390fd5b816005541015610c00576040517f08c379a0000000000000000000000000000000000000000000000000000000008152600401610bf790611e72565b60405180910390fd5b6040518060e0016040528060075481526020018481526020018381526020018273ffffffffffffffffffffffffffffffffffffffff1681526020016000815260200160085442610c509190611347565b815260200160001515815250600260006007548152602001908152602001600020600082015181600001556020820151816001019080519060200190610c9792919061126b565b506040820151816002015560608201518160030160006101000a81548173ffffffffffffffffffffffffffffffffffffffff021916908373ffffffffffffffffffffffffffffffffffffffff1602179055506080820151816004015560a0820151816005015560c08201518160060160006101000a81548160ff0219169083151502179055509050508160056000828254610d329190611b16565b9250508190555060076000815480929190610d4c90611e92565b9190505550505050565b60006020528060005260406000206000915054906101000a900460ff1681565b60036020528160005260406000206020528060005260406000206000915091509054906101000a900460ff1681565b80600160003373ffffffffffffffffffffffffffffffffffffffff1673ffffffffffffffffffffffffffffffffffffffff168152602001908152602001600020541015610e27576040517f08c379a0000000000000000000000000000000000000000000000000000000008152600401610e1e90611af6565b60405180910390fd5b806005541015610e6c576040517f08c379a0000000000000000000000000000000000000000000000000000000008152600401610e6390611f27565b60405180910390fd5b80600160003373ffffffffffffffffffffffffffffffffffffffff1673ffffffffffffffffffffffffffffffffffffffff1681526020019081526020016000206000828254610ebb9190611b16565b925050819055508060056000828254610ed49190611b16565b925050819055503373ffffffffffffffffffffffffffffffffffffffff166108fc829081150290604051600060405180830381858888f19350505050158015610f21573d6000803e3d6000fd5b5050565b60085481565b600a60009054906101000a900473ffffffffffffffffffffffffffffffffffffffff1673ffffffffffffffffffffffffffffffffffffffff163373ffffffffffffffffffffffffffffffffffffffff1614610fbb576040517f08c379a0000000000000000000000000000000000000000000000000000000008152600401610fb290611b96565b60405180910390fd5b610fc58282611132565b5050565b60016020528060005260406000206000915090505481565b60065481565b600654421061102b576040517f08c379a000000000000000000000000000000000000000000000000000000000815260040161102290611fb9565b60405180910390fd5b60016000803373ffffffffffffffffffffffffffffffffffffffff1673ffffffffffffffffffffffffffffffffffffffff16815260200190815260200160002060006101000a81548160ff02191690831515021790555034600160003373ffffffffffffffffffffffffffffffffffffffff1673ffffffffffffffffffffffffffffffffffffffff16815260200190815260200160002060008282546110d19190611347565b9250508190555034600460008282546110ea9190611347565b9250508190555034600560008282546111039190611347565b92505081905550565b600a60009054906101000a900473ffffffffffffffffffffffffffffffffffffffff1681565b600a60009054906101000a900473ffffffffffffffffffffffffffffffffffffffff1673ffffffffffffffffffffffffffffffffffffffff163373ffffffffffffffffffffffffffffffffffffffff16146111c2576040517f08c379a00000000000000000000000000000000000000000000000000000000081526004016111b990611b96565b60405180910390fd5b600554821115611207576040517f08c379a00000000000000000000000000000000000000000000000000000000081526004016111fe90611f27565b60405180910390fd5b81600560008282546112199190611b16565b925050819055508073ffffffffffffffffffffffffffffffffffffffff166108fc839081150290604051600060405180830381858888f19350505050158015611266573d6000803e3d6000fd5b505050565b82805461127790611a78565b90600052602060002090601f01602090048101928261129957600085556112e0565b82601f106112b257805160ff19168380011785556112e0565b828001600101855582156112e0579182015b828111156112df5782518255916020019190600101906112c4565b5b5090506112ed91906112f1565b5090565b5b8082111561130a5760008160009055506001016112f2565b5090565b6000819050919050565b7f4e487b7100000000000000000000000000000000000000000000000000000000600052601160045260246000fd5b60006113528261130e565b915061135d8361130e565b9250827fffffffffffffffffffffffffffffffffffffffffffffffffffffffffffffffff0382111561139257611391611318565b5b828201905092915050565b6000604051905090565b600080fd5b600080fd5b6113ba8161130e565b81146113c557600080fd5b50565b6000813590506113d7816113b1565b92915050565b6000602082840312156113f3576113f26113a7565b5b6000611401848285016113c8565b91505092915050565b6114138161130e565b82525050565b600081519050919050565b600082825260208201905092915050565b60005b83811015611453578082015181840152602081019050611438565b83811115611462576000848401525b50505050565b6000601f19601f8301169050919050565b600061148482611419565b61148e8185611424565b935061149e818560208601611435565b6114a781611468565b840191505092915050565b600073ffffffffffffffffffffffffffffffffffffffff82169050919050565b60006114dd826114b2565b9050919050565b6114ed816114d2565b82525050565b60008115159050919050565b611508816114f3565b82525050565b600060e082019050611523600083018a61140a565b81810360208301526115358189611479565b9050611544604083018861140a565b61155160608301876114e4565b61155e608083018661140a565b61156b60a083018561140a565b61157860c08301846114ff565b98975050505050505050565b600061158f826114b2565b9050919050565b61159f81611584565b81146115aa57600080fd5b50565b6000813590506115bc81611596565b92915050565b600080604083850312156115d9576115d86113a7565b5b60006115e7858286016113c8565b92505060206115f8858286016115ad565b9150509250929050565b6000602082019050611617600083018461140a565b92915050565b600080fd5b600080fd5b7f4e487b7100000000000000000000000000000000000000000000000000000000600052604160045260246000fd5b61165f82611468565b810181811067ffffffffffffffff8211171561167e5761167d611627565b5b80604052505050565b600061169161139d565b905061169d8282611656565b919050565b600067ffffffffffffffff8211156116bd576116bc611627565b5b6116c682611468565b9050602081019050919050565b82818337600083830152505050565b60006116f56116f0846116a2565b611687565b90508281526020810184848401111561171157611710611622565b5b61171c8482856116d3565b509392505050565b600082601f8301126117395761173861161d565b5b81356117498482602086016116e2565b91505092915050565b61175b816114d2565b811461176657600080fd5b50565b60008135905061177881611752565b92915050565b600080600060608486031215611797576117966113a7565b5b600084013567ffffffffffffffff8111156117b5576117b46113ac565b5b6117c186828701611724565b93505060206117d2868287016113c8565b92505060406117e386828701611769565b9150509250925092565b600060208284031215611803576118026113a7565b5b6000611811848285016115ad565b91505092915050565b600060208201905061182f60008301846114ff565b92915050565b6000806040838503121561184c5761184b6113a7565b5b600061185a858286016115ad565b925050602061186b858286016113c8565b9150509250929050565b6000806040838503121561188c5761188b6113a7565b5b600061189a858286016113c8565b92505060206118ab85828601611769565b9150509250929050565b6118be81611584565b82525050565b60006020820190506118d960008301846118b5565b92915050565b7f6f6e6c7920696e766573746f7273000000000000000000000000000000000000600082015250565b6000611915600e83611424565b9150611920826118df565b602082019050919050565b6000602082019050818103600083015261194481611908565b9050919050565b7f696e766573746f722063616e206f6e6c7920766f7465206f6e636520666f722060008201527f612070726f706f73616c00000000000000000000000000000000000000000000602082015250565b60006119a7602a83611424565b91506119b28261194b565b604082019050919050565b600060208201905081810360008301526119d68161199a565b9050919050565b7f63616e206f6e6c7920766f746520756e74696c2070726f706f73616c20656e64600082015250565b6000611a13602083611424565b9150611a1e826119dd565b602082019050919050565b60006020820190508181036000830152611a4281611a06565b9050919050565b7f4e487b7100000000000000000000000000000000000000000000000000000000600052602260045260246000fd5b60006002820490506001821680611a9057607f821691505b60208210811415611aa457611aa3611a49565b5b50919050565b7f6e6f7420656e6f75676820736861726573000000000000000000000000000000600082015250565b6000611ae0601183611424565b9150611aeb82611aaa565b602082019050919050565b60006020820190508181036000830152611b0f81611ad3565b9050919050565b6000611b218261130e565b9150611b2c8361130e565b925082821015611b3f57611b3e611318565b5b828203905092915050565b7f6f6e6c792061646d696e00000000000000000000000000000000000000000000600082015250565b6000611b80600a83611424565b9150611b8b82611b4a565b602082019050919050565b60006020820190508181036000830152611baf81611b73565b9050919050565b7f63616e6e6f74206578656375746520612070726f706f73616c206265666f726560008201527f20656e6420646174650000000000000000000000000000000000000000000000602082015250565b6000611c12602983611424565b9150611c1d82611bb6565b604082019050919050565b60006020820190508181036000830152611c4181611c05565b9050919050565b7f63616e6e6f74206578656375746520612070726f706f73616c20616c7265616460008201527f7920657865637574656400000000000000000000000000000000000000000000602082015250565b6000611ca4602a83611424565b9150611caf82611c48565b604082019050919050565b60006020820190508181036000830152611cd381611c97565b9050919050565b7f4e487b7100000000000000000000000000000000000000000000000000000000600052601260045260246000fd5b6000611d148261130e565b9150611d1f8361130e565b925082611d2f57611d2e611cda565b5b828204905092915050565b6000611d458261130e565b9150611d508361130e565b9250817fffffffffffffffffffffffffffffffffffffffffffffffffffffffffffffffff0483118215151615611d8957611d88611318565b5b828202905092915050565b7f63616e6e6f74206578656375746520612070726f706f73616c2077697468207660008201527f6f7465732062656c6f772071756f72756d000000000000000000000000000000602082015250565b6000611df0603183611424565b9150611dfb82611d94565b604082019050919050565b60006020820190508181036000830152611e1f81611de3565b9050919050565b7f616d6f756e7420746f6f20626967000000000000000000000000000000000000600082015250565b6000611e5c600e83611424565b9150611e6782611e26565b602082019050919050565b60006020820190508181036000830152611e8b81611e4f565b9050919050565b6000611e9d8261130e565b91507fffffffffffffffffffffffffffffffffffffffffffffffffffffffffffffffff821415611ed057611ecf611318565b5b600182019050919050565b7f6e6f7420656e6f75676820617661696c61626c6546756e647300000000000000600082015250565b6000611f11601983611424565b9150611f1c82611edb565b602082019050919050565b60006020820190508181036000830152611f4081611f04565b9050919050565b7f63616e6e6f7420636f6e7472696275746520616674657220636f6e747269627560008201527f74696f6e456e6400000000000000000000000000000000000000000000000000602082015250565b6000611fa3602783611424565b9150611fae82611f47565b604082019050919050565b60006020820190508181036000830152611fd281611f96565b905091905056fea26469706673582212208fb5ceec8109d3bdce85e2634c644d34ff292b936a40edac8998d5b59bb72b9e64736f6c63430008090033",
  "immutableReferences": {},
  "source": "pragma solidity ^0.8.9;\n\ncontract DAO {\n    struct Proposal {\n        uint id;\n        string name;\n        uint amount;\n        address payable recipient;\n        uint votes;\n        uint end; // time of end of Proposal\n        bool executed;\n    }\n    mapping(address => bool) public investors;\n    mapping(address => uint) public shares;\n    mapping(uint => Proposal) public proposals;\n    mapping(address => mapping(uint => bool)) public votes;\n    uint public totalShares;\n    uint public availableFunds;\n    uint public contributionEnd; // close-ended fund, cannot contribute more money once this contribution period ends\n    uint public nextProposalId;\n    uint public voteTime;\n    uint public quorum; // threshold of yes votes for a proposal to be executed\n    address public admin;\n    \n    constructor(\n        uint contributionTime,\n        uint _voteTime,\n        uint _quorum) {\n            require(_quorum > 0 && _quorum < 100, \"quorum must be between 0 and 100\");\n            \n            contributionEnd = block.timestamp + contributionTime;\n            voteTime = _voteTime;\n            quorum = _quorum;\n            admin = msg.sender;\n    }\n    \n    function contribute() payable external {\n        require(block.timestamp < contributionEnd, \"cannot contribute after contributionEnd\");\n        \n        investors[msg.sender] = true;\n        shares[msg.sender] += msg.value; // 1 wei = 1 share\n        totalShares += msg.value;\n        availableFunds += msg.value;\n    }\n    \n    function redeemShares(uint amount) external {\n        require(shares[msg.sender] >= amount, \"not enough shares\");\n        require(availableFunds >= amount, \"not enough availableFunds\");\n        \n        shares[msg.sender] -= amount;\n        availableFunds -= amount;\n        payable(msg.sender).transfer(amount);\n    }\n    \n    function transferShare(uint amount, address to) external {\n        require(shares[msg.sender] >= amount, \"not enough shares\");\n        \n        shares[msg.sender] -= amount;\n        shares[to] += amount;\n        investors[to] = true;\n    }\n    \n    function createProposal(\n        string memory name,\n        uint amount,\n        address payable recipient) \n        external\n        onlyInvestors() {\n            require(availableFunds >= amount, \"amount too big\");\n            \n            proposals[nextProposalId] = Proposal(\n                nextProposalId,\n                name,\n                amount,\n                recipient,\n                0,\n                block.timestamp + voteTime,\n                false\n            );\n            \n            availableFunds -= amount;\n            nextProposalId++;\n        }\n        \n    function vote(uint proposalId) external onlyInvestors() {\n        Proposal storage proposal = proposals[proposalId];\n        require(votes[msg.sender][proposalId] == false, \"investor can only vote once for a proposal\");\n        require(block.timestamp < proposal.end, \"can only vote until proposal end\");\n        \n        votes[msg.sender][proposalId] = true;\n        proposal.votes += shares[msg.sender];\n        \n    }\n    \n    function executeProposal(uint proposalId) external onlyAdmin() {\n        Proposal storage proposal = proposals[proposalId];\n        require(block.timestamp >= proposal.end, \"cannot execute a proposal before end date\");\n        require(proposal.executed == false, \"cannot execute a proposal already executed\");\n        require((proposal.votes / totalShares) * 100 >= quorum, \"cannot execute a proposal with votes below quorum\");\n        \n        _transferEther(proposal.amount, proposal.recipient);\n    }\n    \n    function withdrawEther(uint amount, address payable to) external onlyAdmin() {\n        _transferEther(amount, to);\n    }\n    \n    receive() payable external {\n        availableFunds += msg.value;\n    }\n    \n    function _transferEther(uint amount, address payable to) internal onlyAdmin() {\n        require(amount <= availableFunds, \"not enough availableFunds\");\n        availableFunds -= amount;\n        to.transfer(amount);\n    }\n    \n    modifier onlyInvestors() {\n        require(investors[msg.sender] == true, \"only investors\");\n        _;\n    }\n    \n    modifier onlyAdmin() {\n        require(msg.sender == admin, \"only admin\");\n        _;\n    }\n}\n",
  "sourcePath": "/Users/jacob/Documents/smart_contracts/voting/dao/contracts/DAO.sol",
  "compiler": {
    "name": "solc",
    "version": "0.8.9+commit.e5eed63a.Emscripten.clang"
  },
  "schemaVersion": "3.4.3",
  "updatedAt": "2021-10-21T01:30:12.820Z",
  "networkType": "ethereum",
  "devdoc": {
    "kind": "dev",
    "methods": {},
    "version": 1
  },
  "userdoc": {
    "kind": "user",
    "methods": {},
    "version": 1
  }
}